{
  "_format": "hh-sol-artifact-1",
  "contractName": "PortfolioAdvisor",
  "sourceName": "contracts/PortfolioAdvisor.sol",
  "abi": [
    {
      "inputs": [],
      "stateMutability": "nonpayable",
      "type": "constructor"
    },
    {
      "anonymous": false,
      "inputs": [
        {
          "indexed": true,
          "internalType": "address",
          "name": "user",
          "type": "address"
        },
        {
          "indexed": false,
          "internalType": "string",
          "name": "portfolioData",
          "type": "string"
        },
        {
          "indexed": false,
          "internalType": "uint256",
          "name": "totalValue",
          "type": "uint256"
        },
        {
          "indexed": false,
          "internalType": "uint256",
          "name": "timestamp",
          "type": "uint256"
        }
      ],
      "name": "PortfolioStored",
      "type": "event"
    },
    {
      "anonymous": false,
      "inputs": [
        {
          "indexed": true,
          "internalType": "address",
          "name": "user",
          "type": "address"
        },
        {
          "indexed": false,
          "internalType": "string",
          "name": "actionData",
          "type": "string"
        },
        {
          "indexed": false,
          "internalType": "string",
          "name": "aiSuggestion",
          "type": "string"
        },
        {
          "indexed": false,
          "internalType": "uint256",
          "name": "timestamp",
          "type": "uint256"
        }
      ],
      "name": "RebalanceExecuted",
      "type": "event"
    },
    {
      "anonymous": false,
      "inputs": [
        {
          "indexed": true,
          "internalType": "address",
          "name": "user",
          "type": "address"
        },
        {
          "indexed": false,
          "internalType": "string",
          "name": "riskProfile",
          "type": "string"
        },
        {
          "indexed": false,
          "internalType": "uint256",
          "name": "timestamp",
          "type": "uint256"
        }
      ],
      "name": "RiskProfileSet",
      "type": "event"
    },
    {
      "inputs": [
        {
          "internalType": "address",
          "name": "user",
          "type": "address"
        }
      ],
      "name": "getRebalanceCount",
      "outputs": [
        {
          "internalType": "uint256",
          "name": "",
          "type": "uint256"
        }
      ],
      "stateMutability": "view",
      "type": "function"
    },
    {
      "inputs": [
        {
          "internalType": "address",
          "name": "user",
          "type": "address"
        }
      ],
      "name": "getRebalanceHistory",
      "outputs": [
        {
          "components": [
            {
              "internalType": "address",
              "name": "user",
              "type": "address"
            },
            {
              "internalType": "string",
              "name": "actionData",
              "type": "string"
            },
            {
              "internalType": "string",
              "name": "aiSuggestion",
              "type": "string"
            },
            {
              "internalType": "uint256",
              "name": "timestamp",
              "type": "uint256"
            },
            {
              "internalType": "bool",
              "name": "executed",
              "type": "bool"
            }
          ],
          "internalType": "struct PortfolioAdvisor.RebalanceAction[]",
          "name": "",
          "type": "tuple[]"
        }
      ],
      "stateMutability": "view",
      "type": "function"
    },
    {
      "inputs": [
        {
          "internalType": "address",
          "name": "user",
          "type": "address"
        }
      ],
      "name": "getRiskProfile",
      "outputs": [
        {
          "internalType": "string",
          "name": "",
          "type": "string"
        }
      ],
      "stateMutability": "view",
      "type": "function"
    },
    {
      "inputs": [
        {
          "internalType": "uint256",
          "name": "index",
          "type": "uint256"
        }
      ],
      "name": "getUserByIndex",
      "outputs": [
        {
          "internalType": "address",
          "name": "",
          "type": "address"
        }
      ],
      "stateMutability": "view",
      "type": "function"
    },
    {
      "inputs": [],
      "name": "getUserCount",
      "outputs": [
        {
          "internalType": "uint256",
          "name": "",
          "type": "uint256"
        }
      ],
      "stateMutability": "view",
      "type": "function"
    },
    {
      "inputs": [
        {
          "internalType": "address",
          "name": "user",
          "type": "address"
        }
      ],
      "name": "getUserPortfolio",
      "outputs": [
        {
          "components": [
            {
              "internalType": "string",
              "name": "portfolioData",
              "type": "string"
            },
            {
              "internalType": "string",
              "name": "riskProfile",
              "type": "string"
            },
            {
              "internalType": "uint256",
              "name": "timestamp",
              "type": "uint256"
            },
            {
              "internalType": "uint256",
              "name": "totalValue",
              "type": "uint256"
            }
          ],
          "internalType": "struct PortfolioAdvisor.Portfolio",
          "name": "",
          "type": "tuple"
        }
      ],
      "stateMutability": "view",
      "type": "function"
    },
    {
      "inputs": [],
      "name": "initialized",
      "outputs": [
        {
          "internalType": "bool",
          "name": "",
          "type": "bool"
        }
      ],
      "stateMutability": "view",
      "type": "function"
    },
    {
      "inputs": [
        {
          "internalType": "address",
          "name": "user",
          "type": "address"
        }
      ],
      "name": "portfolioExists",
      "outputs": [
        {
          "internalType": "bool",
          "name": "",
          "type": "bool"
        }
      ],
      "stateMutability": "view",
      "type": "function"
    },
    {
      "inputs": [
        {
          "internalType": "address",
          "name": "",
          "type": "address"
        }
      ],
      "name": "portfolios",
      "outputs": [
        {
          "internalType": "string",
          "name": "portfolioData",
          "type": "string"
        },
        {
          "internalType": "string",
          "name": "riskProfile",
          "type": "string"
        },
        {
          "internalType": "uint256",
          "name": "timestamp",
          "type": "uint256"
        },
        {
          "internalType": "uint256",
          "name": "totalValue",
          "type": "uint256"
        }
      ],
      "stateMutability": "view",
      "type": "function"
    },
    {
      "inputs": [
        {
          "internalType": "address",
          "name": "user",
          "type": "address"
        },
        {
          "internalType": "string",
          "name": "actionData",
          "type": "string"
        },
        {
          "internalType": "string",
          "name": "aiSuggestion",
          "type": "string"
        }
      ],
      "name": "rebalance",
      "outputs": [],
      "stateMutability": "nonpayable",
      "type": "function"
    },
    {
      "inputs": [
        {
          "internalType": "address",
          "name": "",
          "type": "address"
        },
        {
          "internalType": "uint256",
          "name": "",
          "type": "uint256"
        }
      ],
      "name": "rebalanceHistory",
      "outputs": [
        {
          "internalType": "address",
          "name": "user",
          "type": "address"
        },
        {
          "internalType": "string",
          "name": "actionData",
          "type": "string"
        },
        {
          "internalType": "string",
          "name": "aiSuggestion",
          "type": "string"
        },
        {
          "internalType": "uint256",
          "name": "timestamp",
          "type": "uint256"
        },
        {
          "internalType": "bool",
          "name": "executed",
          "type": "bool"
        }
      ],
      "stateMutability": "view",
      "type": "function"
    },
    {
      "inputs": [
        {
          "internalType": "address",
          "name": "user",
          "type": "address"
        },
        {
          "internalType": "string",
          "name": "riskLevel",
          "type": "string"
        }
      ],
      "name": "setRiskProfile",
      "outputs": [],
      "stateMutability": "nonpayable",
      "type": "function"
    },
    {
      "inputs": [
        {
          "internalType": "address",
          "name": "user",
          "type": "address"
        },
        {
          "internalType": "string",
          "name": "portfolioData",
          "type": "string"
        },
        {
          "internalType": "uint256",
          "name": "totalValue",
          "type": "uint256"
        }
      ],
      "name": "storePortfolio",
      "outputs": [],
      "stateMutability": "nonpayable",
      "type": "function"
    },
    {
      "inputs": [
        {
          "internalType": "address",
          "name": "",
          "type": "address"
        }
      ],
      "name": "userRiskProfiles",
      "outputs": [
        {
          "internalType": "string",
          "name": "",
          "type": "string"
        }
      ],
      "stateMutability": "view",
      "type": "function"
    },
    {
      "inputs": [
        {
          "internalType": "uint256",
          "name": "",
          "type": "uint256"
        }
      ],
      "name": "users",
      "outputs": [
        {
          "internalType": "address",
          "name": "",
          "type": "address"
        }
      ],
      "stateMutability": "view",
      "type": "function"
    }
  ],
  "bytecode": "0x608060405234801561001057600080fd5b506004805460ff19166001179055611add8061002d6000396000f3fe608060405234801561001057600080fd5b50600436106100f55760003560e01c80637baab3da11610097578063baf1e57f11610066578063baf1e57f1461023f578063c858b12814610252578063f090d10f14610265578063ff5d32fe1461027857600080fd5b80637baab3da146101d05780637d697c12146101f35780639e6f3ee014610217578063b5cb15f71461023757600080fd5b806335233f23116100d357806335233f231461015c578063365b98b21461017d5780634a8f0dab146101a85780636a9a4d20146101bd57600080fd5b8063158ef93e146100fa57806319f20e531461011c5780631edb27e91461013c575b600080fd5b6004546101079060ff1681565b60405190151581526020015b60405180910390f35b61012f61012a366004611396565b61028b565b60405161011391906113fe565b61014f61014a366004611396565b610325565b6040516101139190611411565b61016f61016a366004611396565b6104e3565b604051908152602001610113565b61019061018b36600461146b565b610529565b6040516001600160a01b039091168152602001610113565b6101bb6101b63660046114cd565b610553565b005b6101076101cb366004611396565b6107fb565b6101e36101de366004611396565b610852565b604051610113949392919061154e565b610206610201366004611587565b61098a565b6040516101139594939291906115b1565b61022a610225366004611396565b610af8565b6040516101139190611601565b60035461016f565b61012f61024d366004611396565b610ceb565b6101bb6102603660046116b3565b610dc0565b6101bb610273366004611706565b61101f565b61019061028636600461146b565b611302565b600260205260009081526040902080546102a490611760565b80601f01602080910402602001604051908101604052809291908181526020018280546102d090611760565b801561031d5780601f106102f25761010080835404028352916020019161031d565b820191906000526020600020905b81548152906001019060200180831161030057829003601f168201915b505050505081565b6103506040518060800160405280606081526020016060815260200160008152602001600081525090565b816001600160a01b0381166103805760405162461bcd60e51b815260040161037790611794565b60405180910390fd5b6001600160a01b038316600090815260208190526040908190208151608081019092528054829082906103b290611760565b80601f01602080910402602001604051908101604052809291908181526020018280546103de90611760565b801561042b5780601f106104005761010080835404028352916020019161042b565b820191906000526020600020905b81548152906001019060200180831161040e57829003601f168201915b5050505050815260200160018201805461044490611760565b80601f016020809104026020016040519081016040528092919081815260200182805461047090611760565b80156104bd5780601f10610492576101008083540402835291602001916104bd565b820191906000526020600020905b8154815290600101906020018083116104a057829003601f168201915b505050505081526020016002820154815260200160038201548152505091505b50919050565b6000816001600160a01b03811661050c5760405162461bcd60e51b815260040161037790611794565b50506001600160a01b031660009081526001602052604090205490565b6003818154811061053957600080fd5b6000918252602090912001546001600160a01b0316905081565b846001600160a01b03811661057a5760405162461bcd60e51b815260040161037790611794565b84848080601f016020809104026020016040519081016040528093929190818152602001838380828437600092019190915250508251151591506105d290505760405162461bcd60e51b8152600401610377906117bd565b83838080601f0160208091040260200160405190810160405280939291908181526020018383808284376000920191909152505082511515915061062a90505760405162461bcd60e51b8152600401610377906117bd565b60006040518060a001604052808a6001600160a01b0316815260200189898080601f016020809104026020016040519081016040528093929190818152602001838380828437600092019190915250505090825250604080516020601f8a0181900481028201810190925288815291810191908990899081908401838280828437600081840152601f19601f820116905080830192505050505050508152602001428152602001600115158152509050600160008a6001600160a01b03166001600160a01b0316815260200190815260200160002081908060018154018082558091505060019003906000526020600020906005020160009091909190915060008201518160000160006101000a8154816001600160a01b0302191690836001600160a01b03160217905550602082015181600101908161076b9190611852565b50604082015160028201906107809082611852565b50606082015160038201556080909101516004909101805460ff19169115159190911790556040516001600160a01b038a16907f0957a67cae17917a21717525099e692ae818f2a8cb68b81c02a3f6cfbf8a8d08906107e8908b908b908b908b90429061193b565b60405180910390a2505050505050505050565b6000816001600160a01b0381166108245760405162461bcd60e51b815260040161037790611794565b6001600160a01b0383166000908152602081905260408120805461084790611760565b905011915050919050565b60006020819052908152604090208054819061086d90611760565b80601f016020809104026020016040519081016040528092919081815260200182805461089990611760565b80156108e65780601f106108bb576101008083540402835291602001916108e6565b820191906000526020600020905b8154815290600101906020018083116108c957829003601f168201915b5050505050908060010180546108fb90611760565b80601f016020809104026020016040519081016040528092919081815260200182805461092790611760565b80156109745780601f1061094957610100808354040283529160200191610974565b820191906000526020600020905b81548152906001019060200180831161095757829003601f168201915b5050505050908060020154908060030154905084565b600160205281600052604060002081815481106109a657600080fd5b6000918252602090912060059091020180546001820180546001600160a01b0390921694509192506109d790611760565b80601f0160208091040260200160405190810160405280929190818152602001828054610a0390611760565b8015610a505780601f10610a2557610100808354040283529160200191610a50565b820191906000526020600020905b815481529060010190602001808311610a3357829003601f168201915b505050505090806002018054610a6590611760565b80601f0160208091040260200160405190810160405280929190818152602001828054610a9190611760565b8015610ade5780601f10610ab357610100808354040283529160200191610ade565b820191906000526020600020905b815481529060010190602001808311610ac157829003601f168201915b50505050600383015460049093015491929160ff16905085565b6060816001600160a01b038116610b215760405162461bcd60e51b815260040161037790611794565b6001600160a01b038316600090815260016020908152604080832080548251818502810185019093528083529193909284015b82821015610cdf5760008481526020908190206040805160a081019091526005850290910180546001600160a01b031682526001810180549293919291840191610b9d90611760565b80601f0160208091040260200160405190810160405280929190818152602001828054610bc990611760565b8015610c165780601f10610beb57610100808354040283529160200191610c16565b820191906000526020600020905b815481529060010190602001808311610bf957829003601f168201915b50505050508152602001600282018054610c2f90611760565b80601f0160208091040260200160405190810160405280929190818152602001828054610c5b90611760565b8015610ca85780601f10610c7d57610100808354040283529160200191610ca8565b820191906000526020600020905b815481529060010190602001808311610c8b57829003601f168201915b5050509183525050600382015460208083019190915260049092015460ff1615156040909101529082526001929092019101610b54565b50505050915050919050565b6060816001600160a01b038116610d145760405162461bcd60e51b815260040161037790611794565b6001600160a01b03831660009081526020819052604090206001018054610d3a90611760565b80601f0160208091040260200160405190810160405280929190818152602001828054610d6690611760565b8015610db35780601f10610d8857610100808354040283529160200191610db3565b820191906000526020600020905b815481529060010190602001808311610d9657829003601f168201915b5050505050915050919050565b826001600160a01b038116610de75760405162461bcd60e51b815260040161037790611794565b82828080601f01602080910402602001604051908101604052809392919081815260200183838082843760009201919091525050825115159150610e3f90505760405162461bcd60e51b8152600401610377906117bd565b604051624c6f7760e81b6020820152602301604051602081830303815290604052805190602001208484604051602001610e7a929190611975565b604051602081830303815290604052805190602001201480610eed5750604051654d656469756d60d01b6020820152602601604051602081830303815290604052805190602001208484604051602001610ed5929190611975565b60405160208183030381529060405280519060200120145b80610f47575060405163090d2ced60e31b6020820152602401604051602081830303815290604052805190602001208484604051602001610f2f929190611975565b60405160208183030381529060405280519060200120145b610f885760405162461bcd60e51b8152602060048201526012602482015271125b9d985b1a59081c9a5cdac81b195d995b60721b6044820152606401610377565b6001600160a01b0385166000908152602081905260409020600101610fae848683611985565b506001600160a01b0385166000908152600260205260409020610fd2848683611985565b50846001600160a01b03167f6705fce03cd08cfc0953aba3fadf006d405a0c2710bc260af5c67c980316ec8f85854260405161101093929190611a46565b60405180910390a25050505050565b836001600160a01b0381166110465760405162461bcd60e51b815260040161037790611794565b83838080601f0160208091040260200160405190810160405280939291908181526020018383808284376000920191909152505082511515915061109e90505760405162461bcd60e51b8152600401610377906117bd565b600083116110fd5760405162461bcd60e51b815260206004820152602660248201527f506f7274666f6c696f2076616c7565206d75737420626520677265617465722060448201526507468616e20360d41b6064820152608401610377565b6001600160a01b03861660009081526020819052604090208054819061112290611760565b905060000361117757600380546001810182556000919091527fc2575a0e9e593c00f959f8c92f12db2869c3395a3b0502d05e2516446f71f85b0180546001600160a01b0319166001600160a01b0389161790555b604051806080016040528087878080601f0160208091040260200160405190810160405280939291908181526020018383808284376000920191909152505050908252506001830180546020909201916111d090611760565b80601f01602080910402602001604051908101604052809291908181526020018280546111fc90611760565b80156112495780601f1061121e57610100808354040283529160200191611249565b820191906000526020600020905b81548152906001019060200180831161122c57829003601f168201915b50505091835250504260208083019190915260409182018790526001600160a01b038a1660009081529081905220815181906112859082611852565b506020820151600182019061129a9082611852565b506040820151816002015560608201518160030155905050866001600160a01b03167ffb371581edcfe15d83a8a7c20f3b0e19a5c14a2a40c46a412f12c0e499ef9f5a878787426040516112f19493929190611a6a565b60405180910390a250505050505050565b600354600090821061134c5760405162461bcd60e51b8152602060048201526013602482015272496e646578206f7574206f6620626f756e647360681b6044820152606401610377565b6003828154811061135f5761135f611a91565b6000918252602090912001546001600160a01b031692915050565b80356001600160a01b038116811461139157600080fd5b919050565b6000602082840312156113a857600080fd5b6113b18261137a565b9392505050565b6000815180845260005b818110156113de576020818501810151868301820152016113c2565b506000602082860101526020601f19601f83011685010191505092915050565b6020815260006113b160208301846113b8565b60208152600082516080602084015261142d60a08401826113b8565b90506020840151601f1984830301604085015261144a82826113b8565b91505060408401516060840152606084015160808401528091505092915050565b60006020828403121561147d57600080fd5b5035919050565b60008083601f84011261149657600080fd5b50813567ffffffffffffffff8111156114ae57600080fd5b6020830191508360208285010111156114c657600080fd5b9250929050565b6000806000806000606086880312156114e557600080fd5b6114ee8661137a565b9450602086013567ffffffffffffffff8082111561150b57600080fd5b61151789838a01611484565b9096509450604088013591508082111561153057600080fd5b5061153d88828901611484565b969995985093965092949392505050565b60808152600061156160808301876113b8565b828103602084015261157381876113b8565b604084019590955250506060015292915050565b6000806040838503121561159a57600080fd5b6115a38361137a565b946020939093013593505050565b6001600160a01b038616815260a0602082018190526000906115d5908301876113b8565b82810360408401526115e781876113b8565b606084019590955250509015156080909101529392505050565b60006020808301818452808551808352604092508286019150828160051b87010184880160005b838110156116a557888303603f19018552815180516001600160a01b031684528781015160a089860181905290611661828701826113b8565b915050878201518582038987015261167982826113b8565b606084810151908801526080938401511515939096019290925250509386019390860190600101611628565b509098975050505050505050565b6000806000604084860312156116c857600080fd5b6116d18461137a565b9250602084013567ffffffffffffffff8111156116ed57600080fd5b6116f986828701611484565b9497909650939450505050565b6000806000806060858703121561171c57600080fd5b6117258561137a565b9350602085013567ffffffffffffffff81111561174157600080fd5b61174d87828801611484565b9598909750949560400135949350505050565b600181811c9082168061177457607f821691505b6020821081036104dd57634e487b7160e01b600052602260045260246000fd5b6020808252600f908201526e496e76616c6964206164647265737360881b604082015260600190565b602080825260169082015275537472696e672063616e6e6f7420626520656d70747960501b604082015260600190565b634e487b7160e01b600052604160045260246000fd5b601f82111561184d57600081815260208120601f850160051c8101602086101561182a5750805b601f850160051c820191505b8181101561184957828155600101611836565b5050505b505050565b815167ffffffffffffffff81111561186c5761186c6117ed565b6118808161187a8454611760565b84611803565b602080601f8311600181146118b5576000841561189d5750858301515b600019600386901b1c1916600185901b178555611849565b600085815260208120601f198616915b828110156118e4578886015182559484019460019091019084016118c5565b50858210156119025787850151600019600388901b60f8161c191681555b5050505050600190811b01905550565b81835281816020850137506000828201602090810191909152601f909101601f19169091010190565b60608152600061194f606083018789611912565b8281036020840152611962818688611912565b9150508260408301529695505050505050565b8183823760009101908152919050565b67ffffffffffffffff83111561199d5761199d6117ed565b6119b1836119ab8354611760565b83611803565b6000601f8411600181146119e557600085156119cd5750838201355b600019600387901b1c1916600186901b178355611a3f565b600083815260209020601f19861690835b82811015611a1657868501358255602094850194600190920191016119f6565b5086821015611a335760001960f88860031b161c19848701351681555b505060018560011b0183555b5050505050565b604081526000611a5a604083018587611912565b9050826020830152949350505050565b606081526000611a7e606083018688611912565b6020830194909452506040015292915050565b634e487b7160e01b600052603260045260246000fdfea26469706673582212207ecaaeeaa7f57b7dc67c6e85ec5f5f7465b005070ccc455e30352028a4293dde64736f6c63430008130033",
  "linkReferences": {},
  "deployedLinkReferences": {}
}